{
  "_format": "hh-sol-artifact-1",
  "contractName": "GenesisFactory",
  "sourceName": "contracts/GenesisFactory.sol",
  "abi": [
    {
      "inputs": [],
      "stateMutability": "nonpayable",
      "type": "constructor"
    },
    {
      "inputs": [
        {
          "internalType": "address",
          "name": "target",
          "type": "address"
        }
      ],
      "name": "AddressEmptyCode",
      "type": "error"
    },
    {
      "inputs": [
        {
          "internalType": "address",
          "name": "account",
          "type": "address"
        }
      ],
      "name": "AddressInsufficientBalance",
      "type": "error"
    },
    {
      "inputs": [],
      "name": "EthTransferFailed",
      "type": "error"
    },
    {
      "inputs": [],
      "name": "FailedInnerCall",
      "type": "error"
    },
    {
      "inputs": [],
      "name": "InvalidAllocationPercent",
      "type": "error"
    },
    {
      "inputs": [],
      "name": "InvalidFeeRate",
      "type": "error"
    },
    {
      "inputs": [],
      "name": "InvalidReserve",
      "type": "error"
    },
    {
      "inputs": [],
      "name": "NotActiveToken",
      "type": "error"
    },
    {
      "inputs": [],
      "name": "NotEnoughAmountOut",
      "type": "error"
    },
    {
      "inputs": [],
      "name": "NotEnoughETHBalance",
      "type": "error"
    },
    {
      "inputs": [],
      "name": "NotEnoughTokenSupply",
      "type": "error"
    },
    {
      "inputs": [
        {
          "internalType": "address",
          "name": "owner",
          "type": "address"
        }
      ],
      "name": "OwnableInvalidOwner",
      "type": "error"
    },
    {
      "inputs": [
        {
          "internalType": "address",
          "name": "account",
          "type": "address"
        }
      ],
      "name": "OwnableUnauthorizedAccount",
      "type": "error"
    },
    {
      "inputs": [],
      "name": "ReentrancyGuardReentrantCall",
      "type": "error"
    },
    {
      "inputs": [
        {
          "internalType": "address",
          "name": "token",
          "type": "address"
        }
      ],
      "name": "SafeERC20FailedOperation",
      "type": "error"
    },
    {
      "inputs": [],
      "name": "TransactionOutdated",
      "type": "error"
    },
    {
      "inputs": [],
      "name": "ZeroAddress",
      "type": "error"
    },
    {
      "inputs": [],
      "name": "ZeroValue",
      "type": "error"
    },
    {
      "anonymous": false,
      "inputs": [
        {
          "indexed": true,
          "internalType": "address",
          "name": "tokenAddress",
          "type": "address"
        },
        {
          "indexed": false,
          "internalType": "uint256",
          "name": "amountIn",
          "type": "uint256"
        },
        {
          "indexed": false,
          "internalType": "uint256",
          "name": "amountOut",
          "type": "uint256"
        }
      ],
      "name": "Bought",
      "type": "event"
    },
    {
      "anonymous": false,
      "inputs": [
        {
          "indexed": false,
          "internalType": "uint256",
          "name": "newFeeRate",
          "type": "uint256"
        }
      ],
      "name": "FeeUpdated",
      "type": "event"
    },
    {
      "anonymous": false,
      "inputs": [
        {
          "indexed": true,
          "internalType": "address",
          "name": "previousOwner",
          "type": "address"
        },
        {
          "indexed": true,
          "internalType": "address",
          "name": "newOwner",
          "type": "address"
        }
      ],
      "name": "OwnershipTransferred",
      "type": "event"
    },
    {
      "anonymous": false,
      "inputs": [
        {
          "indexed": true,
          "internalType": "address",
          "name": "tokenAddress",
          "type": "address"
        },
        {
          "indexed": false,
          "internalType": "uint256",
          "name": "totalSupply",
          "type": "uint256"
        },
        {
          "indexed": false,
          "internalType": "uint256",
          "name": "availableSupply",
          "type": "uint256"
        },
        {
          "indexed": false,
          "internalType": "uint256",
          "name": "ethTarget",
          "type": "uint256"
        }
      ],
      "name": "TokenCreated",
      "type": "event"
    },
    {
      "inputs": [],
      "name": "MAX_FEE_RATE",
      "outputs": [
        {
          "internalType": "uint256",
          "name": "",
          "type": "uint256"
        }
      ],
      "stateMutability": "view",
      "type": "function"
    },
    {
      "inputs": [],
      "name": "PERCENT_100",
      "outputs": [
        {
          "internalType": "uint256",
          "name": "",
          "type": "uint256"
        }
      ],
      "stateMutability": "view",
      "type": "function"
    },
    {
      "inputs": [
        {
          "internalType": "address",
          "name": "_tokenAddress",
          "type": "address"
        },
        {
          "internalType": "uint32",
          "name": "_deadline",
          "type": "uint32"
        }
      ],
      "name": "buyToken",
      "outputs": [],
      "stateMutability": "payable",
      "type": "function"
    },
    {
      "inputs": [],
      "name": "chainLinkPriceFeed",
      "outputs": [
        {
          "internalType": "address",
          "name": "",
          "type": "address"
        }
      ],
      "stateMutability": "view",
      "type": "function"
    },
    {
      "inputs": [
        {
          "components": [
            {
              "internalType": "string",
              "name": "name",
              "type": "string"
            },
            {
              "internalType": "string",
              "name": "symbol",
              "type": "string"
            },
            {
              "internalType": "uint256",
              "name": "totalSupply",
              "type": "uint256"
            },
            {
              "internalType": "string",
              "name": "twitterURL",
              "type": "string"
            },
            {
              "internalType": "string",
              "name": "discordURL",
              "type": "string"
            },
            {
              "internalType": "string",
              "name": "websiteURL",
              "type": "string"
            },
            {
              "internalType": "string",
              "name": "telegramURL",
              "type": "string"
            },
            {
              "internalType": "string",
              "name": "imageURL",
              "type": "string"
            },
            {
              "internalType": "address",
              "name": "tokenCreator",
              "type": "address"
            },
            {
              "internalType": "uint256",
              "name": "availableSupply",
              "type": "uint256"
            },
            {
              "internalType": "uint256",
              "name": "ethTarget",
              "type": "uint256"
            }
          ],
          "internalType": "struct IGenesisFactory.TokenDeployment",
          "name": "_tokenInfo",
          "type": "tuple"
        }
      ],
      "name": "createToken",
      "outputs": [
        {
          "internalType": "address",
          "name": "",
          "type": "address"
        }
      ],
      "stateMutability": "nonpayable",
      "type": "function"
    },
    {
      "inputs": [
        {
          "components": [
            {
              "internalType": "string",
              "name": "name",
              "type": "string"
            },
            {
              "internalType": "string",
              "name": "symbol",
              "type": "string"
            },
            {
              "internalType": "uint256",
              "name": "totalSupply",
              "type": "uint256"
            },
            {
              "internalType": "string",
              "name": "twitterURL",
              "type": "string"
            },
            {
              "internalType": "string",
              "name": "discordURL",
              "type": "string"
            },
            {
              "internalType": "string",
              "name": "websiteURL",
              "type": "string"
            },
            {
              "internalType": "string",
              "name": "telegramURL",
              "type": "string"
            },
            {
              "internalType": "string",
              "name": "imageURL",
              "type": "string"
            },
            {
              "internalType": "address",
              "name": "tokenCreator",
              "type": "address"
            },
            {
              "internalType": "uint256",
              "name": "availableSupply",
              "type": "uint256"
            },
            {
              "internalType": "uint256",
              "name": "ethTarget",
              "type": "uint256"
            }
          ],
          "internalType": "struct IGenesisFactory.TokenDeployment",
          "name": "_tokenInfo",
          "type": "tuple"
        },
        {
          "internalType": "uint32",
          "name": "_deadline",
          "type": "uint32"
        }
      ],
      "name": "createTokenWithBuy",
      "outputs": [
        {
          "internalType": "address",
          "name": "",
          "type": "address"
        }
      ],
      "stateMutability": "payable",
      "type": "function"
    },
    {
      "inputs": [
        {
          "internalType": "address",
          "name": "",
          "type": "address"
        }
      ],
      "name": "devs",
      "outputs": [
        {
          "internalType": "bool",
          "name": "",
          "type": "bool"
        }
      ],
      "stateMutability": "view",
      "type": "function"
    },
    {
      "inputs": [],
      "name": "feeRate",
      "outputs": [
        {
          "internalType": "uint256",
          "name": "",
          "type": "uint256"
        }
      ],
      "stateMutability": "view",
      "type": "function"
    },
    {
      "inputs": [
        {
          "internalType": "address",
          "name": "_token",
          "type": "address"
        }
      ],
      "name": "getReserve",
      "outputs": [
        {
          "internalType": "uint256",
          "name": "",
          "type": "uint256"
        }
      ],
      "stateMutability": "view",
      "type": "function"
    },
    {
      "inputs": [
        {
          "internalType": "address",
          "name": "_token",
          "type": "address"
        }
      ],
      "name": "isTokenActive",
      "outputs": [
        {
          "internalType": "bool",
          "name": "",
          "type": "bool"
        }
      ],
      "stateMutability": "view",
      "type": "function"
    },
    {
      "inputs": [],
      "name": "owner",
      "outputs": [
        {
          "internalType": "address",
          "name": "",
          "type": "address"
        }
      ],
      "stateMutability": "view",
      "type": "function"
    },
    {
      "inputs": [],
      "name": "renounceOwnership",
      "outputs": [],
      "stateMutability": "nonpayable",
      "type": "function"
    },
    {
      "inputs": [
        {
          "internalType": "address[]",
          "name": "array",
          "type": "address[]"
        }
      ],
      "name": "setDevs",
      "outputs": [],
      "stateMutability": "nonpayable",
      "type": "function"
    },
    {
      "inputs": [
        {
          "internalType": "uint256",
          "name": "_feeRate",
          "type": "uint256"
        }
      ],
      "name": "setFeeRate",
      "outputs": [],
      "stateMutability": "nonpayable",
      "type": "function"
    },
    {
      "inputs": [
        {
          "internalType": "address",
          "name": "",
          "type": "address"
        }
      ],
      "name": "tokens",
      "outputs": [
        {
          "internalType": "uint256",
          "name": "balance",
          "type": "uint256"
        },
        {
          "internalType": "uint256",
          "name": "totalSupply",
          "type": "uint256"
        },
        {
          "internalType": "uint256",
          "name": "availableSupply",
          "type": "uint256"
        },
        {
          "internalType": "uint256",
          "name": "ethTarget",
          "type": "uint256"
        },
        {
          "internalType": "uint256",
          "name": "usdTarget",
          "type": "uint256"
        },
        {
          "internalType": "bool",
          "name": "isCreated",
          "type": "bool"
        },
        {
          "internalType": "bool",
          "name": "isListed",
          "type": "bool"
        },
        {
          "internalType": "bool",
          "name": "isTargetAchieved",
          "type": "bool"
        },
        {
          "internalType": "bool",
          "name": "isEthTarget",
          "type": "bool"
        }
      ],
      "stateMutability": "view",
      "type": "function"
    },
    {
      "inputs": [
        {
          "internalType": "address",
          "name": "newOwner",
          "type": "address"
        }
      ],
      "name": "transferOwnership",
      "outputs": [],
      "stateMutability": "nonpayable",
      "type": "function"
    },
    {
      "inputs": [
        {
          "internalType": "uint256",
          "name": "amount",
          "type": "uint256"
        }
      ],
      "name": "withdrawEth",
      "outputs": [],
      "stateMutability": "nonpayable",
      "type": "function"
    }
  ],
  "bytecode": "0x6080604052670de0b6b3a764000060025566b1a2bc2ec500006003553480156200002857600080fd5b5062000039620000cd60201b60201c565b600073ffffffffffffffffffffffffffffffffffffffff168173ffffffffffffffffffffffffffffffffffffffff1603620000ae5760006040517f1e4fbdf7000000000000000000000000000000000000000000000000000000008152600401620000a59190620001de565b60405180910390fd5b620000bf81620000d560201b60201c565b5060018081905550620001fb565b600033905090565b60008060009054906101000a900473ffffffffffffffffffffffffffffffffffffffff169050816000806101000a81548173ffffffffffffffffffffffffffffffffffffffff021916908373ffffffffffffffffffffffffffffffffffffffff1602179055508173ffffffffffffffffffffffffffffffffffffffff168173ffffffffffffffffffffffffffffffffffffffff167f8be0079c531659141344cd1fd0a4f28419497f9722a3daafe3b4186f6b6457e060405160405180910390a35050565b600073ffffffffffffffffffffffffffffffffffffffff82169050919050565b6000620001c68262000199565b9050919050565b620001d881620001b9565b82525050565b6000602082019050620001f56000830184620001cd565b92915050565b61400b806200020b6000396000f3fe608060405260043610620001165760003560e01c806392f6576e11620000a3578063c9a396e9116200006d578063c9a396e9146200036b578063cd83876914620003af578063dfb79e3214620003e5578063e48603391462000415578063f2fde38b14620004615762000116565b806392f6576e1462000299578063978bbdb914620002c9578063c311d04914620002f9578063c8e2490514620003275762000116565b80637e78015711620000e55780637e78015714620001c7578063895b327e14620001f75780638c59314f146200023b5780638da5cb5b14620002695762000116565b806308dfb7e5146200011b57806344003a5e146200013b57806345596e2e146200017f578063715018a614620001ad575b600080fd5b6200013960048036038101906200013391906200168d565b6200048f565b005b3480156200014857600080fd5b5062000167600480360381019062000161919062001a7b565b620004e3565b60405162000176919062001add565b60405180910390f35b3480156200018c57600080fd5b50620001ab6004803603810190620001a5919062001afa565b620004f7565b005b348015620001ba57600080fd5b50620001c562000581565b005b348015620001d457600080fd5b50620001df62000599565b604051620001ee919062001b3d565b60405180910390f35b3480156200020457600080fd5b506200022360048036038101906200021d919062001b5a565b6200059f565b60405162000232919062001ba9565b60405180910390f35b3480156200024857600080fd5b5062000267600480360381019062000261919062001c2f565b620006b8565b005b3480156200027657600080fd5b506200028162000766565b60405162000290919062001add565b60405180910390f35b348015620002a657600080fd5b50620002b16200078f565b604051620002c0919062001b3d565b60405180910390f35b348015620002d657600080fd5b50620002e162000795565b604051620002f0919062001b3d565b60405180910390f35b3480156200030657600080fd5b506200032560048036038101906200031f919062001afa565b6200079b565b005b3480156200033457600080fd5b506200035360048036038101906200034d919062001b5a565b62000813565b60405162000362919062001ba9565b60405180910390f35b3480156200037857600080fd5b5062000397600480360381019062000391919062001b5a565b62000833565b604051620003a6919062001b3d565b60405180910390f35b620003cd6004803603810190620003c7919062001c84565b620008bb565b604051620003dc919062001add565b60405180910390f35b348015620003f257600080fd5b50620003fd620008e1565b6040516200040c919062001add565b60405180910390f35b3480156200042257600080fd5b506200044160048036038101906200043b919062001b5a565b62000907565b604051620004589998979695949392919062001cea565b60405180910390f35b3480156200046e57600080fd5b506200048d600480360381019062000487919062001b5a565b62000989565b005b816200049b816200059f565b620004d2576040517fcb0998bf00000000000000000000000000000000000000000000000000000000815260040160405180910390fd5b620004de838362000a16565b505050565b6000620004f08262000e2b565b9050919050565b6200050162001046565b6003548111156200053e576040517f56d6919800000000000000000000000000000000000000000000000000000000815260040160405180910390fd5b806004819055507f8c4d35e54a3f2ef1134138fd8ea3daee6a3c89e10d2665996babdf70261e2c768160405162000576919062001b3d565b60405180910390a150565b6200058b62001046565b620005976000620010d6565b565b60025481565b600080600560008473ffffffffffffffffffffffffffffffffffffffff1673ffffffffffffffffffffffffffffffffffffffff1681526020019081526020016000206040518061012001604052908160008201548152602001600182015481526020016002820154815260200160038201548152602001600482015481526020016005820160009054906101000a900460ff161515151581526020016005820160019054906101000a900460ff161515151581526020016005820160029054906101000a900460ff161515151581526020016005820160039054906101000a900460ff16151515158152505090508060a001518015620006a157508060c00151155b8015620006b057508060e00151155b915050919050565b620006c262001046565b60005b828290508110156200076157600160076000858585818110620006ed57620006ec62001d89565b5b905060200201602081019062000704919062001b5a565b73ffffffffffffffffffffffffffffffffffffffff1673ffffffffffffffffffffffffffffffffffffffff16815260200190815260200160002060006101000a81548160ff021916908315150217905550806001019050620006c5565b505050565b60008060009054906101000a900473ffffffffffffffffffffffffffffffffffffffff16905090565b60035481565b60045481565b60076000620007a96200119a565b73ffffffffffffffffffffffffffffffffffffffff1673ffffffffffffffffffffffffffffffffffffffff16815260200190815260200160002060009054906101000a900460ff16620007fb57600080fd5b62000810620008096200119a565b82620011a2565b50565b60076020528060005260406000206000915054906101000a900460ff1681565b60008173ffffffffffffffffffffffffffffffffffffffff166370a08231306040518263ffffffff1660e01b815260040162000870919062001add565b602060405180830381865afa1580156200088e573d6000803e3d6000fd5b505050506040513d601f19601f82011682018060405250810190620008b4919062001dcf565b9050919050565b600080620008c98462000e2b565b9050620008d7818462000a16565b8091505092915050565b600660009054906101000a900473ffffffffffffffffffffffffffffffffffffffff1681565b60056020528060005260406000206000915090508060000154908060010154908060020154908060030154908060040154908060050160009054906101000a900460ff16908060050160019054906101000a900460ff16908060050160029054906101000a900460ff16908060050160039054906101000a900460ff16905089565b6200099362001046565b600073ffffffffffffffffffffffffffffffffffffffff168173ffffffffffffffffffffffffffffffffffffffff160362000a085760006040517f1e4fbdf7000000000000000000000000000000000000000000000000000000008152600401620009ff919062001add565b60405180910390fd5b62000a1381620010d6565b50565b6000340362000a51576040517f7c946ed700000000000000000000000000000000000000000000000000000000815260040160405180910390fd5b428163ffffffff16101562000a92576040517fb39bbbee00000000000000000000000000000000000000000000000000000000815260040160405180910390fd5b600062000a9f8362000833565b90506000600560008573ffffffffffffffffffffffffffffffffffffffff1673ffffffffffffffffffffffffffffffffffffffff1681526020019081526020016000206040518061012001604052908160008201548152602001600182015481526020016002820154815260200160038201548152602001600482015481526020016005820160009054906101000a900460ff161515151581526020016005820160019054906101000a900460ff161515151581526020016005820160029054906101000a900460ff161515151581526020016005820160039054906101000a900460ff161515151581525050905060008160400151826020015162000ba6919062001e30565b905080830362000be2576040517f3699e9d400000000000000000000000000000000000000000000000000000000815260040160405180910390fd5b600062000bef8662000833565b905081811162000c2b576040517f3699e9d400000000000000000000000000000000000000000000000000000000815260040160405180910390fd5b600062000c4234856040015186606001516200124f565b90506000818362000c54919062001e30565b905060008482101562000c9f57848462000c6f919062001e30565b9250849150600062000c8b848860400151896060015162001293565b9050803462000c9b919062001e30565b9150505b84820362000d03576001600560008b73ffffffffffffffffffffffffffffffffffffffff1673ffffffffffffffffffffffffffffffffffffffff16815260200190815260200160002060050160026101000a81548160ff0219169083151502179055505b803462000d11919062001e30565b600560008b73ffffffffffffffffffffffffffffffffffffffff1673ffffffffffffffffffffffffffffffffffffffff168152602001908152602001600020600001600082825462000d64919062001e6b565b925050819055508873ffffffffffffffffffffffffffffffffffffffff167fa9a40dec7a304e5915d11358b968c1e8d365992abf20f82285d1df1b30c8e24c823462000db1919062001e30565b8560405162000dc292919062001ea6565b60405180910390a262000e0062000dd86200119a565b848b73ffffffffffffffffffffffffffffffffffffffff16620012d79092919063ffffffff16565b600081111562000e205762000e1f62000e186200119a565b82620011a2565b5b505050505050505050565b600080826000015183602001518460400151856060015186608001518760a001518860c001518960e0015160405162000e6490620015c5565b62000e7798979695949392919062001f5c565b604051809103906000f08015801562000e94573d6000803e3d6000fd5b50905060008190506001600560008373ffffffffffffffffffffffffffffffffffffffff1673ffffffffffffffffffffffffffffffffffffffff16815260200190815260200160002060050160006101000a81548160ff0219169083151502179055508360400151600560008373ffffffffffffffffffffffffffffffffffffffff1673ffffffffffffffffffffffffffffffffffffffff16815260200190815260200160002060010181905550836101200151600560008373ffffffffffffffffffffffffffffffffffffffff1673ffffffffffffffffffffffffffffffffffffffff16815260200190815260200160002060020181905550836101400151600560008373ffffffffffffffffffffffffffffffffffffffff1673ffffffffffffffffffffffffffffffffffffffff168152602001908152602001600020600301819055508073ffffffffffffffffffffffffffffffffffffffff167f3deeffca3c86a528758b0ff95b46b531e03be332bf88cb7e2c7b0b8daa608c31856040015186610120015187610140015160405162001034939291906200201b565b60405180910390a28092505050919050565b620010506200119a565b73ffffffffffffffffffffffffffffffffffffffff166200107062000766565b73ffffffffffffffffffffffffffffffffffffffff1614620010d457620010966200119a565b6040517f118cdaa7000000000000000000000000000000000000000000000000000000008152600401620010cb919062001add565b60405180910390fd5b565b60008060009054906101000a900473ffffffffffffffffffffffffffffffffffffffff169050816000806101000a81548173ffffffffffffffffffffffffffffffffffffffff021916908373ffffffffffffffffffffffffffffffffffffffff1602179055508173ffffffffffffffffffffffffffffffffffffffff168173ffffffffffffffffffffffffffffffffffffffff167f8be0079c531659141344cd1fd0a4f28419497f9722a3daafe3b4186f6b6457e060405160405180910390a35050565b600033905090565b60008273ffffffffffffffffffffffffffffffffffffffff1682604051620011ca906200208d565b60006040518083038185875af1925050503d806000811462001209576040519150601f19603f3d011682016040523d82523d6000602084013e6200120e565b606091505b50509050806200124a576040517f6d963f8800000000000000000000000000000000000000000000000000000000815260040160405180910390fd5b505050565b6000600254826002548587620012669190620020a4565b620012729190620020a4565b6200127e91906200211e565b6200128a91906200211e565b90509392505050565b6000600254836002548487620012aa9190620020a4565b620012b69190620020a4565b620012c291906200211e565b620012ce91906200211e565b90509392505050565b62001355838473ffffffffffffffffffffffffffffffffffffffff1663a9059cbb85856040516024016200130d92919062002156565b604051602081830303815290604052915060e01b6020820180517bffffffffffffffffffffffffffffffffffffffffffffffffffffffff83818316178352505050506200135a565b505050565b600062001387828473ffffffffffffffffffffffffffffffffffffffff16620013f990919063ffffffff16565b90506000815114158015620013af575080806020019051810190620013ad9190620021b4565b155b15620013f457826040517f5274afe7000000000000000000000000000000000000000000000000000000008152600401620013eb919062001add565b60405180910390fd5b505050565b6060620014098383600062001411565b905092915050565b6060814710156200145b57306040517fcd78605900000000000000000000000000000000000000000000000000000000815260040162001452919062001add565b60405180910390fd5b6000808573ffffffffffffffffffffffffffffffffffffffff16848660405162001486919062002228565b60006040518083038185875af1925050503d8060008114620014c5576040519150601f19603f3d011682016040523d82523d6000602084013e620014ca565b606091505b5091509150620014dc868383620014e7565b925050509392505050565b6060826200150057620014fa826200157f565b62001577565b6000825114801562001529575060008473ffffffffffffffffffffffffffffffffffffffff163b145b156200156e57836040517f9996b31500000000000000000000000000000000000000000000000000000000815260040162001565919062001add565b60405180910390fd5b81905062001578565b5b9392505050565b600081511115620015935780518082602001fd5b6040517f1425ea4200000000000000000000000000000000000000000000000000000000815260040160405180910390fd5b611d94806200224283390190565b6000604051905090565b600080fd5b600080fd5b600073ffffffffffffffffffffffffffffffffffffffff82169050919050565b60006200161482620015e7565b9050919050565b620016268162001607565b81146200163257600080fd5b50565b60008135905062001646816200161b565b92915050565b600063ffffffff82169050919050565b62001667816200164c565b81146200167357600080fd5b50565b60008135905062001687816200165c565b92915050565b60008060408385031215620016a757620016a6620015dd565b5b6000620016b78582860162001635565b9250506020620016ca8582860162001676565b9150509250929050565b600080fd5b6000601f19601f8301169050919050565b7f4e487b7100000000000000000000000000000000000000000000000000000000600052604160045260246000fd5b6200172482620016d9565b810181811067ffffffffffffffff82111715620017465762001745620016ea565b5b80604052505050565b60006200175b620015d3565b905062001769828262001719565b919050565b600080fd5b600080fd5b600080fd5b600067ffffffffffffffff8211156200179b576200179a620016ea565b5b620017a682620016d9565b9050602081019050919050565b82818337600083830152505050565b6000620017d9620017d3846200177d565b6200174f565b905082815260208101848484011115620017f857620017f762001778565b5b62001805848285620017b3565b509392505050565b600082601f83011262001825576200182462001773565b5b813562001837848260208601620017c2565b91505092915050565b6000819050919050565b620018558162001840565b81146200186157600080fd5b50565b60008135905062001875816200184a565b92915050565b60006101608284031215620018955762001894620016d4565b5b620018a26101606200174f565b9050600082013567ffffffffffffffff811115620018c557620018c46200176e565b5b620018d3848285016200180d565b600083015250602082013567ffffffffffffffff811115620018fa57620018f96200176e565b5b62001908848285016200180d565b60208301525060406200191e8482850162001864565b604083015250606082013567ffffffffffffffff8111156200194557620019446200176e565b5b62001953848285016200180d565b606083015250608082013567ffffffffffffffff8111156200197a57620019796200176e565b5b62001988848285016200180d565b60808301525060a082013567ffffffffffffffff811115620019af57620019ae6200176e565b5b620019bd848285016200180d565b60a08301525060c082013567ffffffffffffffff811115620019e457620019e36200176e565b5b620019f2848285016200180d565b60c08301525060e082013567ffffffffffffffff81111562001a195762001a186200176e565b5b62001a27848285016200180d565b60e08301525061010062001a3e8482850162001635565b6101008301525061012062001a568482850162001864565b6101208301525061014062001a6e8482850162001864565b6101408301525092915050565b60006020828403121562001a945762001a93620015dd565b5b600082013567ffffffffffffffff81111562001ab55762001ab4620015e2565b5b62001ac3848285016200187b565b91505092915050565b62001ad78162001607565b82525050565b600060208201905062001af4600083018462001acc565b92915050565b60006020828403121562001b135762001b12620015dd565b5b600062001b238482850162001864565b91505092915050565b62001b378162001840565b82525050565b600060208201905062001b54600083018462001b2c565b92915050565b60006020828403121562001b735762001b72620015dd565b5b600062001b838482850162001635565b91505092915050565b60008115159050919050565b62001ba38162001b8c565b82525050565b600060208201905062001bc0600083018462001b98565b92915050565b600080fd5b600080fd5b60008083601f84011262001be95762001be862001773565b5b8235905067ffffffffffffffff81111562001c095762001c0862001bc6565b5b60208301915083602082028301111562001c285762001c2762001bcb565b5b9250929050565b6000806020838503121562001c495762001c48620015dd565b5b600083013567ffffffffffffffff81111562001c6a5762001c69620015e2565b5b62001c788582860162001bd0565b92509250509250929050565b6000806040838503121562001c9e5762001c9d620015dd565b5b600083013567ffffffffffffffff81111562001cbf5762001cbe620015e2565b5b62001ccd858286016200187b565b925050602062001ce08582860162001676565b9150509250929050565b60006101208201905062001d02600083018c62001b2c565b62001d11602083018b62001b2c565b62001d20604083018a62001b2c565b62001d2f606083018962001b2c565b62001d3e608083018862001b2c565b62001d4d60a083018762001b98565b62001d5c60c083018662001b98565b62001d6b60e083018562001b98565b62001d7b61010083018462001b98565b9a9950505050505050505050565b7f4e487b7100000000000000000000000000000000000000000000000000000000600052603260045260246000fd5b60008151905062001dc9816200184a565b92915050565b60006020828403121562001de85762001de7620015dd565b5b600062001df88482850162001db8565b91505092915050565b7f4e487b7100000000000000000000000000000000000000000000000000000000600052601160045260246000fd5b600062001e3d8262001840565b915062001e4a8362001840565b925082820390508181111562001e655762001e6462001e01565b5b92915050565b600062001e788262001840565b915062001e858362001840565b925082820190508082111562001ea05762001e9f62001e01565b5b92915050565b600060408201905062001ebd600083018562001b2c565b62001ecc602083018462001b2c565b9392505050565b600081519050919050565b600082825260208201905092915050565b60005b8381101562001f0f57808201518184015260208101905062001ef2565b60008484015250505050565b600062001f288262001ed3565b62001f34818562001ede565b935062001f4681856020860162001eef565b62001f5181620016d9565b840191505092915050565b600061010082019050818103600083015262001f79818b62001f1b565b9050818103602083015262001f8f818a62001f1b565b905062001fa0604083018962001b2c565b818103606083015262001fb4818862001f1b565b9050818103608083015262001fca818762001f1b565b905081810360a083015262001fe0818662001f1b565b905081810360c083015262001ff6818562001f1b565b905081810360e08301526200200c818462001f1b565b90509998505050505050505050565b600060608201905062002032600083018662001b2c565b62002041602083018562001b2c565b62002050604083018462001b2c565b949350505050565b600081905092915050565b50565b60006200207560008362002058565b9150620020828262002063565b600082019050919050565b60006200209a8262002066565b9150819050919050565b6000620020b18262001840565b9150620020be8362001840565b9250828202620020ce8162001840565b91508282048414831517620020e857620020e762001e01565b5b5092915050565b7f4e487b7100000000000000000000000000000000000000000000000000000000600052601260045260246000fd5b60006200212b8262001840565b9150620021388362001840565b9250826200214b576200214a620020ef565b5b828204905092915050565b60006040820190506200216d600083018562001acc565b6200217c602083018462001b2c565b9392505050565b6200218e8162001b8c565b81146200219a57600080fd5b50565b600081519050620021ae8162002183565b92915050565b600060208284031215620021cd57620021cc620015dd565b5b6000620021dd848285016200219d565b91505092915050565b600081519050919050565b6000620021fe82620021e6565b6200220a818562002058565b93506200221c81856020860162001eef565b80840191505092915050565b6000620022368284620021f1565b91508190509291505056fe60806040523480156200001157600080fd5b5060405162001d9438038062001d9483398181016040528101906200003791906200057b565b878781600390816200004a91906200095e565b5080600490816200005c91906200095e565b5050506200008062000073620000e860201b60201c565b87620000f060201b60201c565b84600590816200009191906200095e565b508360069081620000a391906200095e565b508260079081620000b591906200095e565b508160089081620000c791906200095e565b508060099081620000d991906200095e565b50505050505050505062000b7c565b600033905090565b600073ffffffffffffffffffffffffffffffffffffffff168273ffffffffffffffffffffffffffffffffffffffff1603620001655760006040517fec442f050000000000000000000000000000000000000000000000000000000081526004016200015c919062000a8a565b60405180910390fd5b62000179600083836200017d60201b60201c565b5050565b600073ffffffffffffffffffffffffffffffffffffffff168373ffffffffffffffffffffffffffffffffffffffff1603620001d3578060026000828254620001c6919062000ad6565b92505081905550620002a9565b60008060008573ffffffffffffffffffffffffffffffffffffffff1673ffffffffffffffffffffffffffffffffffffffff1681526020019081526020016000205490508181101562000262578381836040517fe450d38c000000000000000000000000000000000000000000000000000000008152600401620002599392919062000b22565b60405180910390fd5b8181036000808673ffffffffffffffffffffffffffffffffffffffff1673ffffffffffffffffffffffffffffffffffffffff16815260200190815260200160002081905550505b600073ffffffffffffffffffffffffffffffffffffffff168273ffffffffffffffffffffffffffffffffffffffff1603620002f4578060026000828254039250508190555062000341565b806000808473ffffffffffffffffffffffffffffffffffffffff1673ffffffffffffffffffffffffffffffffffffffff168152602001908152602001600020600082825401925050819055505b8173ffffffffffffffffffffffffffffffffffffffff168373ffffffffffffffffffffffffffffffffffffffff167fddf252ad1be2c89b69c2b068fc378daa952ba7f163c4a11628f55a4df523b3ef83604051620003a0919062000b5f565b60405180910390a3505050565b6000604051905090565b600080fd5b600080fd5b600080fd5b600080fd5b6000601f19601f8301169050919050565b7f4e487b7100000000000000000000000000000000000000000000000000000000600052604160045260246000fd5b6200041682620003cb565b810181811067ffffffffffffffff82111715620004385762000437620003dc565b5b80604052505050565b60006200044d620003ad565b90506200045b82826200040b565b919050565b600067ffffffffffffffff8211156200047e576200047d620003dc565b5b6200048982620003cb565b9050602081019050919050565b60005b83811015620004b657808201518184015260208101905062000499565b60008484015250505050565b6000620004d9620004d38462000460565b62000441565b905082815260208101848484011115620004f857620004f7620003c6565b5b6200050584828562000496565b509392505050565b600082601f830112620005255762000524620003c1565b5b815162000537848260208601620004c2565b91505092915050565b6000819050919050565b620005558162000540565b81146200056157600080fd5b50565b60008151905062000575816200054a565b92915050565b600080600080600080600080610100898b0312156200059f576200059e620003b7565b5b600089015167ffffffffffffffff811115620005c057620005bf620003bc565b5b620005ce8b828c016200050d565b985050602089015167ffffffffffffffff811115620005f257620005f1620003bc565b5b620006008b828c016200050d565b9750506040620006138b828c0162000564565b965050606089015167ffffffffffffffff811115620006375762000636620003bc565b5b620006458b828c016200050d565b955050608089015167ffffffffffffffff811115620006695762000668620003bc565b5b620006778b828c016200050d565b94505060a089015167ffffffffffffffff8111156200069b576200069a620003bc565b5b620006a98b828c016200050d565b93505060c089015167ffffffffffffffff811115620006cd57620006cc620003bc565b5b620006db8b828c016200050d565b92505060e089015167ffffffffffffffff811115620006ff57620006fe620003bc565b5b6200070d8b828c016200050d565b9150509295985092959890939650565b600081519050919050565b7f4e487b7100000000000000000000000000000000000000000000000000000000600052602260045260246000fd5b600060028204905060018216806200077057607f821691505b60208210810362000786576200078562000728565b5b50919050565b60008190508160005260206000209050919050565b60006020601f8301049050919050565b600082821b905092915050565b600060088302620007f07fffffffffffffffffffffffffffffffffffffffffffffffffffffffffffffffff82620007b1565b620007fc8683620007b1565b95508019841693508086168417925050509392505050565b6000819050919050565b60006200083f62000839620008338462000540565b62000814565b62000540565b9050919050565b6000819050919050565b6200085b836200081e565b620008736200086a8262000846565b848454620007be565b825550505050565b600090565b6200088a6200087b565b6200089781848462000850565b505050565b5b81811015620008bf57620008b360008262000880565b6001810190506200089d565b5050565b601f8211156200090e57620008d8816200078c565b620008e384620007a1565b81016020851015620008f3578190505b6200090b6200090285620007a1565b8301826200089c565b50505b505050565b600082821c905092915050565b6000620009336000198460080262000913565b1980831691505092915050565b60006200094e838362000920565b9150826002028217905092915050565b62000969826200071d565b67ffffffffffffffff811115620009855762000984620003dc565b5b62000991825462000757565b6200099e828285620008c3565b600060209050601f831160018114620009d65760008415620009c1578287015190505b620009cd858262000940565b86555062000a3d565b601f198416620009e6866200078c565b60005b8281101562000a1057848901518255600182019150602085019450602081019050620009e9565b8683101562000a30578489015162000a2c601f89168262000920565b8355505b6001600288020188555050505b505050505050565b600073ffffffffffffffffffffffffffffffffffffffff82169050919050565b600062000a728262000a45565b9050919050565b62000a848162000a65565b82525050565b600060208201905062000aa1600083018462000a79565b92915050565b7f4e487b7100000000000000000000000000000000000000000000000000000000600052601160045260246000fd5b600062000ae38262000540565b915062000af08362000540565b925082820190508082111562000b0b5762000b0a62000aa7565b5b92915050565b62000b1c8162000540565b82525050565b600060608201905062000b39600083018662000a79565b62000b48602083018562000b11565b62000b57604083018462000b11565b949350505050565b600060208201905062000b76600083018462000b11565b92915050565b6112088062000b8c6000396000f3fe608060405234801561001057600080fd5b50600436106100ea5760003560e01c806370a082311161008c578063a9059cbb11610066578063a9059cbb14610251578063b90497e014610281578063dd62ed3e1461029f578063e7b2c08e146102cf576100ea565b806370a08231146101e5578063779f63501461021557806395d89b4114610233576100ea565b806323b872dd116100c857806323b872dd1461015b5780632e6f130f1461018b578063313ce567146101a9578063343fe61b146101c7576100ea565b806306fdde03146100ef578063095ea7b31461010d57806318160ddd1461013d575b600080fd5b6100f76102ed565b6040516101049190610e5c565b60405180910390f35b61012760048036038101906101229190610f17565b61037f565b6040516101349190610f72565b60405180910390f35b6101456103a2565b6040516101529190610f9c565b60405180910390f35b61017560048036038101906101709190610fb7565b6103ac565b6040516101829190610f72565b60405180910390f35b6101936103db565b6040516101a09190610e5c565b60405180910390f35b6101b1610469565b6040516101be9190611026565b60405180910390f35b6101cf610472565b6040516101dc9190610e5c565b60405180910390f35b6101ff60048036038101906101fa9190611041565b610500565b60405161020c9190610f9c565b60405180910390f35b61021d610548565b60405161022a9190610e5c565b60405180910390f35b61023b6105d6565b6040516102489190610e5c565b60405180910390f35b61026b60048036038101906102669190610f17565b610668565b6040516102789190610f72565b60405180910390f35b61028961068b565b6040516102969190610e5c565b60405180910390f35b6102b960048036038101906102b4919061106e565b610719565b6040516102c69190610f9c565b60405180910390f35b6102d76107a0565b6040516102e49190610e5c565b60405180910390f35b6060600380546102fc906110dd565b80601f0160208091040260200160405190810160405280929190818152602001828054610328906110dd565b80156103755780601f1061034a57610100808354040283529160200191610375565b820191906000526020600020905b81548152906001019060200180831161035857829003601f168201915b5050505050905090565b60008061038a61082e565b9050610397818585610836565b600191505092915050565b6000600254905090565b6000806103b761082e565b90506103c4858285610848565b6103cf8585856108dc565b60019150509392505050565b600880546103e8906110dd565b80601f0160208091040260200160405190810160405280929190818152602001828054610414906110dd565b80156104615780601f1061043657610100808354040283529160200191610461565b820191906000526020600020905b81548152906001019060200180831161044457829003601f168201915b505050505081565b60006012905090565b6006805461047f906110dd565b80601f01602080910402602001604051908101604052809291908181526020018280546104ab906110dd565b80156104f85780601f106104cd576101008083540402835291602001916104f8565b820191906000526020600020905b8154815290600101906020018083116104db57829003601f168201915b505050505081565b60008060008373ffffffffffffffffffffffffffffffffffffffff1673ffffffffffffffffffffffffffffffffffffffff168152602001908152602001600020549050919050565b60078054610555906110dd565b80601f0160208091040260200160405190810160405280929190818152602001828054610581906110dd565b80156105ce5780601f106105a3576101008083540402835291602001916105ce565b820191906000526020600020905b8154815290600101906020018083116105b157829003601f168201915b505050505081565b6060600480546105e5906110dd565b80601f0160208091040260200160405190810160405280929190818152602001828054610611906110dd565b801561065e5780601f106106335761010080835404028352916020019161065e565b820191906000526020600020905b81548152906001019060200180831161064157829003601f168201915b5050505050905090565b60008061067361082e565b90506106808185856108dc565b600191505092915050565b60098054610698906110dd565b80601f01602080910402602001604051908101604052809291908181526020018280546106c4906110dd565b80156107115780601f106106e657610100808354040283529160200191610711565b820191906000526020600020905b8154815290600101906020018083116106f457829003601f168201915b505050505081565b6000600160008473ffffffffffffffffffffffffffffffffffffffff1673ffffffffffffffffffffffffffffffffffffffff16815260200190815260200160002060008373ffffffffffffffffffffffffffffffffffffffff1673ffffffffffffffffffffffffffffffffffffffff16815260200190815260200160002054905092915050565b600580546107ad906110dd565b80601f01602080910402602001604051908101604052809291908181526020018280546107d9906110dd565b80156108265780601f106107fb57610100808354040283529160200191610826565b820191906000526020600020905b81548152906001019060200180831161080957829003601f168201915b505050505081565b600033905090565b61084383838360016109d0565b505050565b60006108548484610719565b90507fffffffffffffffffffffffffffffffffffffffffffffffffffffffffffffffff81146108d657818110156108c6578281836040517ffb8f41b20000000000000000000000000000000000000000000000000000000081526004016108bd9392919061111d565b60405180910390fd5b6108d5848484840360006109d0565b5b50505050565b600073ffffffffffffffffffffffffffffffffffffffff168373ffffffffffffffffffffffffffffffffffffffff160361094e5760006040517f96c6fd1e0000000000000000000000000000000000000000000000000000000081526004016109459190611154565b60405180910390fd5b600073ffffffffffffffffffffffffffffffffffffffff168273ffffffffffffffffffffffffffffffffffffffff16036109c05760006040517fec442f050000000000000000000000000000000000000000000000000000000081526004016109b79190611154565b60405180910390fd5b6109cb838383610ba7565b505050565b600073ffffffffffffffffffffffffffffffffffffffff168473ffffffffffffffffffffffffffffffffffffffff1603610a425760006040517fe602df05000000000000000000000000000000000000000000000000000000008152600401610a399190611154565b60405180910390fd5b600073ffffffffffffffffffffffffffffffffffffffff168373ffffffffffffffffffffffffffffffffffffffff1603610ab45760006040517f94280d62000000000000000000000000000000000000000000000000000000008152600401610aab9190611154565b60405180910390fd5b81600160008673ffffffffffffffffffffffffffffffffffffffff1673ffffffffffffffffffffffffffffffffffffffff16815260200190815260200160002060008573ffffffffffffffffffffffffffffffffffffffff1673ffffffffffffffffffffffffffffffffffffffff168152602001908152602001600020819055508015610ba1578273ffffffffffffffffffffffffffffffffffffffff168473ffffffffffffffffffffffffffffffffffffffff167f8c5be1e5ebec7d5bd14f71427d1e84f3dd0314c0f7b2291e5b200ac8c7c3b92584604051610b989190610f9c565b60405180910390a35b50505050565b600073ffffffffffffffffffffffffffffffffffffffff168373ffffffffffffffffffffffffffffffffffffffff1603610bf9578060026000828254610bed919061119e565b92505081905550610ccc565b60008060008573ffffffffffffffffffffffffffffffffffffffff1673ffffffffffffffffffffffffffffffffffffffff16815260200190815260200160002054905081811015610c85578381836040517fe450d38c000000000000000000000000000000000000000000000000000000008152600401610c7c9392919061111d565b60405180910390fd5b8181036000808673ffffffffffffffffffffffffffffffffffffffff1673ffffffffffffffffffffffffffffffffffffffff16815260200190815260200160002081905550505b600073ffffffffffffffffffffffffffffffffffffffff168273ffffffffffffffffffffffffffffffffffffffff1603610d155780600260008282540392505081905550610d62565b806000808473ffffffffffffffffffffffffffffffffffffffff1673ffffffffffffffffffffffffffffffffffffffff168152602001908152602001600020600082825401925050819055505b8173ffffffffffffffffffffffffffffffffffffffff168373ffffffffffffffffffffffffffffffffffffffff167fddf252ad1be2c89b69c2b068fc378daa952ba7f163c4a11628f55a4df523b3ef83604051610dbf9190610f9c565b60405180910390a3505050565b600081519050919050565b600082825260208201905092915050565b60005b83811015610e06578082015181840152602081019050610deb565b60008484015250505050565b6000601f19601f8301169050919050565b6000610e2e82610dcc565b610e388185610dd7565b9350610e48818560208601610de8565b610e5181610e12565b840191505092915050565b60006020820190508181036000830152610e768184610e23565b905092915050565b600080fd5b600073ffffffffffffffffffffffffffffffffffffffff82169050919050565b6000610eae82610e83565b9050919050565b610ebe81610ea3565b8114610ec957600080fd5b50565b600081359050610edb81610eb5565b92915050565b6000819050919050565b610ef481610ee1565b8114610eff57600080fd5b50565b600081359050610f1181610eeb565b92915050565b60008060408385031215610f2e57610f2d610e7e565b5b6000610f3c85828601610ecc565b9250506020610f4d85828601610f02565b9150509250929050565b60008115159050919050565b610f6c81610f57565b82525050565b6000602082019050610f876000830184610f63565b92915050565b610f9681610ee1565b82525050565b6000602082019050610fb16000830184610f8d565b92915050565b600080600060608486031215610fd057610fcf610e7e565b5b6000610fde86828701610ecc565b9350506020610fef86828701610ecc565b925050604061100086828701610f02565b9150509250925092565b600060ff82169050919050565b6110208161100a565b82525050565b600060208201905061103b6000830184611017565b92915050565b60006020828403121561105757611056610e7e565b5b600061106584828501610ecc565b91505092915050565b6000806040838503121561108557611084610e7e565b5b600061109385828601610ecc565b92505060206110a485828601610ecc565b9150509250929050565b7f4e487b7100000000000000000000000000000000000000000000000000000000600052602260045260246000fd5b600060028204905060018216806110f557607f821691505b602082108103611108576111076110ae565b5b50919050565b61111781610ea3565b82525050565b6000606082019050611132600083018661110e565b61113f6020830185610f8d565b61114c6040830184610f8d565b949350505050565b6000602082019050611169600083018461110e565b92915050565b7f4e487b7100000000000000000000000000000000000000000000000000000000600052601160045260246000fd5b60006111a982610ee1565b91506111b483610ee1565b92508282019050808211156111cc576111cb61116f565b5b9291505056fea2646970667358221220cedddad1d4d62fac219b75f01c462ae6490ceee9eea1b0c9daa3feaf80712edd64736f6c63430008180033a2646970667358221220780573d03a5e2aae9ed748163f5a47b220cffe43198f619d4b4be5443ad3b79d64736f6c63430008180033",
  "linkReferences": {},
  "deployedLinkReferences": {}
}